:040000000C94360026
:100004000C9400000C9400000C9400000C9400006C
:100014000C9400000C9400000C9400000C9400005C
:100024000C9400000C9400000C9400000C9400004C
:100034000C9400000C9400000C9400000C9400003C
:100044000C9400000C9400000C9400000C9400002C
:1000540080C001002D4E414E00000200600154009A
:100064000100640156000000F894EE27ECBBF1E0B7
:10007400FBBFEBBFE5BFF8E1F1BDE1BD8DE0A2E060
:10008400BB27ED938A95E9F780E094E0A0E6ED9331
:100094000197E9F7EEE5F0E085919591009761F01D
:1000A400A591B59105901590BF01F00105900D92B1
:1000B4000197E1F7FB01F0CFEFE5EDBFE4E0EEBF20
:1000C400C0E6D1E00C947300E881E062E7B983E014
:1000D4008A95F1F7369A349BFECF349AE5B10C94A5
:1000E4006C01E0E0EBBBEABBE8BBE8E0E7BBE0E0C7
:1000F400E5BBE4BBE2BBE0E8E1BBE1E6E3BFE0E093
:10010400E2BFECBFEFBDEEBDEDBDECBDE7BDE6BDAE
:10011400EBBDEABDE9BDE8BDE2BDE1E6E5BDE0E079
:10012400E4BDE3BDE5BFE4BFE9BFE0E8E8B9E0E072
:10013400E0BFE0E2E7B9E7E8E6B9E0E1EA930E946C
:100144003A01E0E0EA93C0DF5E2EE1E0EA93BCDF2F
:100154004E2EE2E0EA93B8DF7E2EA52DE1E0EA9F81
:10016400B001A42DE2E0EA9FF0016E0F7F1FA72DDE
:10017400E3E0EA9FF001DB01AE0FBF1FE3E0F0E034
:100184000E9490014F01F401EF57F040E3BDF401E8
:10019400EF57F040AFEFB0E00E94A301EA1BFB0B66
:1001A400ECBFCFCFFFCFFFE0FA95F1F70895A4B3EA
:1001B400AF70A4BBA99AA898F6DFAA9AF4DFA3B3F8
:1001C400AA98F1DFAA9AEFDFAA98A7FDF5CF0895C0
:1001D400A07FAB2BA5BBAA9A0E94D500AA980E9427
:1001E400D5000895A998A4B3A76FA4BBB5B3BF70F5
:1001F400A881EEDFA881A295EBDFA99A0C946C018B
:10020400AA9A0E94D500E3B3AA980E94D500E07F81
:1002140008950E94D500F4DFAE2FF2DFA998E2958D
:10022400EA2B08950E94D900E2E0EA930E94F400C8
:100234000E94D900ECE0EA930E94F4000E94D900E5
:10024400E1E0EA930E94F400E0E0AE2EBE2E0895B1
:10025400AA27BB271197F1F70895A998A4B3A76F0C
:10026400A4BBB5B3BF70A8810E94EA00A99A32C0AA
:10027400AA98A898D880E881E058E0936201E881C0
:10028400E054E09363010E946E010E946E010E949B
:100294006E01DEDFE0E2EA93E0DFDADFE8E20E940B
:1002A4007401E4E00E947401E5E80E947401A4B3BF
:1002B400AF70A4BBA99A0E940B01E53011F0E0E0F5
:1002C40009C00E94D900E6E0EA930E94F4000E946B
:1002D4001401E1E0219608950E942A01E0E3EA93E3
:1002E4000C942F01EA930E94F4000C942A01F195D6
:1002F400E195F04008950024112490E1AA0FBB1F5A
:10030400001C111C0E1A1F0A18F40E0E1F1E01C029
:10031400A1609A9599F7FD01D001089504D0EBDF0F
:100324000EF4E5DF0895E894F7FF02C0E0DF689477
:10033400B7FF06C0A095B095119600F8039400FA93
:1003440008951B2EBF2FF12D1A2EAE2FE12D0895E7
:00000001FF
