:0E0000000C9432000C9400000C9400000C9440
:10000E0000000C9400000C9400000C9400000C9462
:10001E0000000C9400000C9400000C9400000C9452
:10002E0000000C9400000C9400000C9400000C9442
:10003E0000000C9400000C9400000C9400000C9432
:10004E0000000C94000000000000000000000800FA
:10005E00040054000000F894EE27ECBBF1E0FBBF67
:10006E00EBBFE5BFF8E1F1BDE1BD8DE0A2E0BB273E
:10007E00ED938A95E9F780E094E0A0E6ED93019781
:10008E00E9F7ECE5F0E085919591009761F0A59187
:10009E00B59105901590BF01F00105900D92019755
:1000AE00E1F7FB01F0CFEFE5EDBFE4E0EEBFC0E618
:1000BE00D1E00C94B101C89B04C0CCD111F4CA9903
:1000CE0001C004C0CCD1A1E0B0E030D2D4D121F433
:1000DE00C99B02C0D5D109F004C0C1D1A5E0B0E0E2
:1000EE0025D2C9D121F4B6D111F4CAD109F006C076
:1000FE00B6D1A2E0B0E01AD288249924C89B04C0DD
:10010E00C99B02C0CA9901C004C0BFD1A2E0B0E031
:10011E000DD2B1D111F4CA9901C001C0C2D1C89B90
:10012E0002C0AED109F001C0C8D10895C89B04C069
:10013E0091D111F4CA9901C004C091D1A1E0B0E0EF
:10014E00F5D199D121F4C99B02C09AD109F004C00E
:10015E0086D1A5E0B0E0EAD18ED121F47BD111F4A5
:10016E008FD109F004C07BD1A1E0B0E0DFD1C89BF4
:10017E0004C0C99B02C0CA9901C004C086D1A5E0C3
:10018E00B0E0D4D178D111F4CA9901C001C089D19F
:10019E00C89B02C075D109F001C08FD10895C89BCC
:1001AE0004C058D111F4CA9901C004C058D1A6E0B8
:1001BE00B0E0BCD160D121F4C99B02C061D109F07D
:1001CE0004C04DD1A5E0B0E0B1D155D121F442D15A
:1001DE0011F456D109F00FC07CD1A8E07FD183D1A4
:1001EE0044F4929A9398979883D1F50131965F01D2
:1001FE00F6CF44245524C89B04C0C99B02C0CA999B
:10020E0001C004C042D1A3E0B0E090D134D111F4CA
:10021E00CA9901C001C045D1C89B02C031D109F0B5
:10022E0001C04BD10895C89B04C014D111F4CA99D2
:10023E0001C004C014D1A2E0B0E078D11CD121F4E9
:10024E00C99B02C01DD109F004C009D1A5E0B0E0E0
:10025E006DD111D121F4FED011F412D109F01EC0CE
:10026E0038D1A6E03BD1E8E1F0E0AE16BF0694F43B
:10027E00929A93989798969AA1E0B0E057D1929857
:10028E00939897989698A4E0B0E050D1F5013196E6
:10029E005F01E9CF4424552466247724C89B04C00B
:1002AE00C99B02C0CA9901C004C0EFD0A3E0B0E060
:1002BE003DD1E1D011F4CA9901C001C0F2D0C89B62
:1002CE0002C0DED009F001C0F8D00895C89B04C06A
:1002DE00C1D011F4CA9901C004C0C1D0A6E0B0E0EB
:1002EE0025D1C9D021F4C99B02C0CAD009F004C0DF
:1002FE00B6D0A5E0B0E01AD1BED021F4ABD011F447
:10030E00BFD009F00FC0E5D0A6E0E8D0ECD044F4A1
:10031E0092989398979AECD0F50131965F01F6CFAB
:10032E0066247724C89B04C0C99B02C0CA9901C029
:10033E0004C0ABD0A5E0B0E0F9D09DD011F4CA99BD
:10034E0001C001C0AED0C89B02C09AD009F001C056
:10035E00B4D00895E0E0EABBEBBBE7BBE8BBEFE14E
:10036E00E4BBE0E0E5BBEFEFE1BBE0E0E2BBE3BF07
:10037E00E2BFECBFEFBDEEBDEDBDECBDE7BDE6BD32
:10038E00EBBDEABDE9BDE8BDE2BDE5BDE4BDE3BD43
:10039E00E9BFE5BFE4BFEAB9E0E8E8B9E0E0E0BFF5
:1003AE00E6B9EDB9E6BF949A959AA8ECB0E0BED046
:1003BE00082C0928F1F4CB9B07C0E1E0F0E02F01F7
:1003CE00A2D0A4E0B0E0B2D0CD9B07C0E1E0F0E057
:1003DE003F0199D0A4E0B0E0A9D0A0E0CB99A1E074
:1003EE00A03029F4A0E0CD99A1E0A03009F001C021
:1003FE009DDE8DD021F490D011F4CD9901C003C0B3
:10040E00E1E0F0E03F0183D021F48BD011F4CB99E1
:10041E0001C003C0E1E0F0E02F0179D0C9F47CD037
:10042E0011F47FD009F002C0FEDEC2CF0024041406
:10043E00050421F400240614070409F001C03BDE74
:10044E006BD009F4ACDE6DD011F440DF01C033DEA9
:10045E00AFCFFFCFA0E0C999A1E0A0300895929A46
:10046E009398979A9698A1E0B0E060D0929893985E
:10047E00979896980895A0E0C899A1E0A0300895A5
:10048E00A0E0CA99A1E0A03008959298939A979807
:10049E00969AA1E0B0E04AD0929893989798969841
:1004AE00089596989798929A9398A1E0B0E03ED0CE
:1004BE0092989398A3E0B0E039C09698979A929844
:1004CE009398A1E0B0E032D096989798A3E0B0E070
:1004DE002DC09298939A9798969A0895B0E026D048
:1004EE00AA24BB240895E6E1F0E0AE16BF060895F7
:1004FE009698A1E0B0E01AD0929893989798969813
:10050E00A4E0B0E013C0E1E0F0E04F01E2CFE1E0A3
:10051E00F0E0E815F9050895E1E0F0E0E415F505E1
:10052E000895E1E0F0E0E615F7050895109639F02C
:10053E0080ED97E00197F1F7A8951197C9F7089507
:00000001FF
