:100000000C9438000C9400000C9400000C94000038
:100010000C9400000C9400000C9400000C94000060
:100020000C9400000C9400000C9400000C94000050
:100030000C9400000C9400000C9400000C94000040
:100040000C9400000C9400000C9400000C94000030
:100050000C94000048656C6C6F206261627900004E
:1000600080C00B006001540002006B0160000000C2
:10007000F894EE27ECBBF1E0FBBFEBBFE5BFF8E186
:10008000F1BDE1BD8DE0A2E0BB27ED938A95E9F7D4
:1000900080E094E0A0E6ED930197E9F7E2E6F0E076
:1000A00085919591009761F0A591B5910590159076
:1000B000BF01F00105900D920197E1F7FB01F0CF30
:1000C000EFE5EDBFE4E0EEBFC0E6D1E00C946800E0
:1000D000E0E0EABBEBBBE7BBE8BBE4BBE5BBE1BBF5
:1000E000E2BBE3BFE2BFECBFEFBDEEBDEDBDECBDDB
:1000F000E7BDE6BDEBBDEABDE9BDE8BDE2BDE5BDDE
:10010000E4BDE3BDE9BFE5BFE4BFEAB9E0E8E8B9B3
:10011000E0E0E0BFE6B9EDB9E6BFA0E162D0A0E65D
:10012000B1E04ED0FCCFFFCFAA93E8B3EF70AE2F73
:10013000E881E07FEA2BE8BB8DE08A95F1F7C29A6F
:100140008DE08A95F1F7C2988DE08A95F1F771C03C
:10015000AA93A881E9DFE881E295E883A881E4DF3A
:1001600085E88A95F1F765C0AA93E881F0E0E55942
:10017000FE4FE081A981AE0FEBDF598048802296C7
:100180000895A2E058D0ACE0E3DFA1E054D0E0E075
:100190004E2E5E2E0895AA93A881AA3011F057140E
:1001A00048F0E0E0EA934394A42DDEDFA881AA3072
:1001B00009F43FC05394C09AA881CADFC09839C0DF
:1001C000BA93AA931A93A981BA81ED91A983BA83AC
:1001D0001E2FE03019F0A12FDEDFF5CF1881239616
:1001E0000895AA93E7B3E06FE7BBBA9AB89AB99AB1
:1001F000C298C098C1987880E881E058E0936D017A
:10020000E881E054E0936E01A4E1B0E01FD017D084
:1002100016D015D0A0E288DF88EC90E00197F1F7C6
:10022000A8E296DFA4E094DFA5E892DFA6E090DFE5
:10023000A8DF219608958CDFA3E0B0E007C0A0E31B
:1002400073DF88EC90E00197F1F70895109639F08C
:1002500080ED97E00197F1F7A8951197C9F70895F8
:00000001FF
