:060000000C9432000C9488
:1000060000000C9400000C9400000C9400000C946A
:1000160000000C9400000C9400000C9400000C945A
:1000260000000C9400000C9400000C9400000C944A
:1000360000000C9400000C9400000C9400000C943A
:1000460000000C9400000C9400000C9400000000CA
:100056000000000000000800040054000000F894AE
:10006600EE27ECBBF1E0FBBFEBBFE5BFF8E1F1BD6E
:10007600E1BD8DE0A2E0BB27ED938A95E9F780E02C
:1000860094E0A0E6ED930197E9F7ECE5F0E08591C1
:100096009591009761F0A591B59105901590BF01D6
:1000A600F00105900D920197E1F7FB01F0CFEFE526
:1000B600EDBFE4E0EEBFC0E6D1E00C946200E0E004
:1000C600EABBEBBBE7BBE8BBE4BBE5BBEFEFE1BBE1
:1000D600E0E0E2BBE3BFE2BFECBFEFBDEEBDEDBDCE
:1000E600ECBDE7BDE6BDEBBDEABDE9BDE8BDE2BDE1
:1000F600E5BDE4BDE3BDE9BFE5BFE4BFEAB9E0E8BD
:10010600E8B9E0E0E0BFE6B9EDB9E6BF949A959AA2
:10011600CB9924C088249924C89B04C0FED011F42E
:10012600CA9901C001C0FED0C89B04C0C99B02C0C9
:10013600CA9901C004C004D1A2E0B0E067D105D1DC
:1001460011F4CA9901C002C005D109D1C89B02C0E9
:100156000ED109F002C010D114D19DC0CB9B04C0B2
:1001660000240414050409F029C0F20131962F0178
:1001760031970FD10024041405040CF4AA9AC89BE5
:1001860004C0CBD011F4CA9901C001C0CBD0C89B22
:1001960004C0C99B02C0CA9901C002C0D1D0FED01A
:1001A600D4D011F4CA9901C002C0D4D001D1C89BE1
:1001B60002C0DDD009F002C0DFD002D1CB9B08C05F
:1001C60000240414050424F40024081409040CF083
:1001D60028C0C89B04C0A1D011F4CA9901C005C0AB
:1001E600929A93989798969AD9D0C89B04C0C99B1F
:1001F60002C0CA9901C007C09298939A979A969896
:10020600A2E0B0E003D1A1D011F4CA9901C002C0A6
:10021600A1D0CED0C89B02C0AAD009F002C0ACD0F3
:10022600CFD0CB9B0CC000240414050444F4002456
:100236000814090421F400240614070409F02BC04D
:10024600A8D0F30131963F01319700240614070424
:100256000CF4A99AC89B04C060D011F4CA9901C0D5
:1002660001C060D0C89B04C0C99B02C0CA9901C026
:1002760004C066D0A2E0B0E0C9D067D011F4CA9934
:1002860001C002C067D06BD0C89B02C070D009F015
:1002960002C072D076D0C89B0BC0C99B09C0CA9B4E
:1002A60007C0CB9904C0CC9902C0CD9B01C001C048
:1002B60032C0CB9B04C08CD011F48FD009F006C09D
:1002C600929A9398979A9698A1E08CD094D021F41C
:1002D6007FD011F482D009F006C0929A939897982D
:1002E6009698A3E07FD087D021F4CC9B02C0CD990D
:1002F60001C001C085D07FD021F4CC9B02C06DD057
:1003060009F001C07DD0CB9B04C0CC9B02C065D058
:1003160009F001C075D0FCCEFFCFA0E0C999A1E0DD
:10032600A0300895929A9398979A9698A1E0B0E093
:100336006DD09298939897989698A2E0B0E066C090
:100346009298939A9798969A0895A0E0C899A1E0F2
:10035600A030089596989798929A93980895A2E057
:10036600B0E054D092989398A1E0B0E04FC0A0E0DE
:10037600CA99A1E0A03008959698979A9298939872
:100386000895A2E0B0E042D096989798A1E0B0E038
:100396003DC0F40131964F0131970895A1E0B0E0D8
:1003A60035D09298939897989698A2E0B0E02EC090
:1003B600A5E0B0E02BD092989398A3E0B0E026C0D9
:1003C600A5E0B0E023D096989798A3E0B0E01EC0D1
:1003D600A0E0CC99A1E0A0300895A0E0CD99A1E0DD
:1003E600A0300895B0E012D0929893989798969876
:1003F600A3E0B0E00BC0A0E0CB99A1E0A030089547
:1004060092989398979A9698A3E0ECCF109639F025
:1004160080ED97E00197F1F7A8951197C9F7089530
:00000001FF
