:060000000C9431000C9489
:1000060000000C9400000C9400000C9400000C946A
:1000160000000C9400000C9400000C9400000C945A
:1000260000000C9400000C9400000C9400000C944A
:1000360000000C9400000C9400000C9400000C943A
:1000460000000C9400000C9400000C9400000000CA
:10005600000000000600040054000000F894EE279B
:10006600ECBBF1E0FBBFEBBFE5BFF8E1F1BDE1BDE5
:100076008DE0A2E0BB27ED938A95E9F780E094E056
:10008600A0E6ED930197E9F7EAE5F0E08591959111
:10009600009761F0A591B59105901590BF01F0010B
:1000A60005900D920197E1F7FB01F0CFEFE5EDBF6B
:1000B600E4E0EEBFC0E6D1E00C946100E0E0EABB0C
:1000C600EBBBE7BBE8BBE7E0E4BBE0E0E5BBEFEF9B
:1000D600E1BBE0E0E2BBE3BFE2BFECBFEFBDEEBDDC
:1000E600EDBDECBDE7BDE6BDEBBDEABDE9BDE8BDD6
:1000F600E2BDE5BDE4BDE3BDE9BFE5BFE4BFEAB9E6
:10010600E0E8E8B9E0E0E0BFE6B9EDB9E6BF949A09
:10011600959ACB9932C088249924C89B04C03ED1B5
:1001260011F4CA9901C001C03ED14BD121F436D198
:1001360011F44CD109F001C036D1C89B04C0C99B4B
:1001460002C0CA9901C00CC046D121F449D111F4AC
:100156004CD109F002C04ED101C059D1B0E08ED1C8
:1001660030D111F4CA9901C001C05ED1C89B02C04A
:100176002DD109F001C064D1A7C0CB9B04C00024D7
:100186000414050409F030C0F20131962F013197AD
:1001960063D10024041405040CF4AA9AC89B04C075
:1001A600FDD011F4CA9901C001C0FDD00AD121F4D5
:1001B600F5D011F40BD109F001C0F5D0C89B04C0ED
:1001C600C99B02C0CA9901C003C021D1B0E056D173
:1001D600F8D011F4CA9901C001C026D1C89B02C04B
:1001E600F5D009F001C02CD1CB9B08C00024041423
:1001F600050424F40024081409040CF026C0C89B46
:1002060004C0CCD011F4CA9901C001C0CCD0D9D059
:1002160021F4C4D011F4DAD009F001C0C4D0C89BCF
:1002260004C0C99B02C0CA9901C003C0F0D0B0E0A7
:1002360025D1C7D011F4CA9901C001C0F5D0C89B19
:1002460002C0C4D009F001C0FBD0CB9B0CC0002477
:100256000414050444F400240814090421F40024B9
:100266000614070409F030C0F7D0F30131963F01B8
:1002760031970024061407040CF4A99AC89B04C0FD
:100286008DD011F4CA9901C001C08DD09AD021F445
:1002960085D011F49BD009F001C085D0C89B04C05D
:1002A600C99B02C0CA9901C003C0B1D0B0E0E6D074
:1002B60088D011F4CA9901C001C0B6D0C89B02C04B
:1002C60085D009F001C0BCD0C89B0BC0C99B09C032
:1002D600CA9B07C0CB9904C0CC9902C0CD9B01C074
:1002E60001C05AC0CB9B04C07BD011F47ED009F06C
:1002F60001C059D0CB9B04C073D011F4CD9901C075
:1003060001C051D0CB9B04C0CC9B02C0CD9901C08B
:1003160009C09298939A979A9698AAE0A2D0A1E0DB
:10032600B0E0ACD058D021F45BD011F45ED009F027
:1003360003C060D0B0E0A2D04ED021F451D011F469
:10034600CD9901C003C056D0B0E098D044D021F476
:10035600CC9B02C0CD9901C009C0929A93989798F8
:100366009698A4E07ED0A2E0B0E088D034D021F404
:10037600CC9B02C03AD009F004C07AD0A2E0B0E02B
:100386007DD0CB9B04C0CC9B02C02FD009F004C00B
:100396006FD0A2E0B0E072D0BCCEFFCFA0E0C9998A
:1003A600A1E0A0300895929A9398979A9698A1E022
:1003B600B0E064D09298939897989698A4E0B0E0AD
:1003C6005DC0A0E0C899A1E0A0300895A0E0CA9958
:1003D600A1E0A0300895A0E0CB99A1E0A030089557
:1003E600A0E0CC99A1E0A0300895A0E0CD99A1E0CD
:1003F600A0300895929A939897989698A3E0B0E0C3
:100406003DD09298939897989698A2E008959298DE
:10041600939A9798969AA2E0B0E030D092989398E3
:1004260097989698A1E0089596989798929A939897
:10043600A4E0B0E023D092989398A1E0B0E01EC06B
:100446009698979A92989398A4E0B0E017D09698C9
:100456009798A1E0B0E012C0F40131964F013197B0
:100466000895B0E00BD0929893989798969808952F
:1004760092989398979A9698A3E0F3CF109639F0AE
:1004860080ED97E00197F1F7A8951197C9F70895C0
:00000001FF
