:080000000C9433000C94000085
:100008000C9400000C9400000C9400000C94000068
:100018000C9400000C9400000C9400000C94000058
:100028000C9400000C9400000C9400000C94000048
:100038000C9400000C9400000C9400000C94000038
:100048000C9400000C9400000C94000000000000C8
:100058000000000000000A00040054000000F894AA
:10006800EE27ECBBF1E0FBBFEBBFE5BFF8E1F1BD6C
:10007800E1BD8DE0A2E0BB27ED938A95E9F780E02A
:1000880094E0A0E6ED930197E9F7EEE5F0E08591BD
:100098009591009761F0A591B59105901590BF01D4
:1000A800F00105900D920197E1F7FB01F0CFEFE524
:1000B800EDBFE4E0EEBFC0E6D1E00C945701C89B69
:1000C80004C0BCD111F4CA9901C002C0BCD1E7C0B8
:1000D800C7D121F4B3D111F4C8D109F002C0B3D10A
:1000E800DEC0C89B04C0C99B02C0CA9901C003C036
:1000F800C1D1A2E0D4C0B4D111F4CA9901C002C0E0
:10010800C5D1CCC0C89B02C0B0D109F002C0C8D1CB
:10011800C5C00895C89B04C091D111F4CA9901C003
:1001280003C0C8D1A5E0BBC09BD121F487D111F48D
:100138009CD109F012C000240C140D0424F40024EE
:100148000A140B040CF004C0C1D19398A1E002C0BA
:10015800B1D1A4E0B0E0DAD10895C89B04C0C99B2E
:1001680002C0CA9901C02DC000240414050424F457
:100178000024061407040CF01FC0B1D131F4B4D127
:1001880021F400240A140B040CF004C09FD1A1E050
:10019800B0E0BCD1A4D131F4A7D121F400240A14D1
:1001A8000B0409F008C0929A9398979A9698A1D14F
:1001B800A1E0B0E0ABD104C05DD1A1E0B0E0A6D130
:1001C80008954ED111F4CA9901C002C05FD166C02A
:1001D800C89B02C04AD109F002C062D15FC008952D
:1001E800CB9B04C07CD111F47FD109F003C062D14C
:1001F800A4E055C0CB9B04C072D111F4CD9901C0C5
:1002080003C058D1A4E04BC0CB9B04C0CC9B02C018
:10021800CD9901C00EC09298939A979A9698A6E4A1
:10022800B0E074D19298939897989698A8E8B3E11B
:1002380037C067D121F453D111F456D109F004C065
:10024800929A9398979828C05CD121F448D111F4D8
:10025800CD9901C004C0929A939897981DC051D126
:1002680021F4CC9B02C0CD9901C004C0929A939806
:10027800979812C046D121F4CC9B02C035D109F021
:1002880001C007C0CB9B04C0CC9B02C02DD109F094
:1002980009C092989398979A96982BD1A1E0B0E0CC
:1002A80035D108950895E0E0EABBEBBBE7BBE8BBB6
:1002B800E7E0E4BBE0E0E5BBEFEFE1BBE0E0E2BB99
:1002C800E3BFE2BFECBFEFBDEEBDEDBDECBDE7BDEA
:1002D800E6BDEBBDEABDE9BDE8BDE2BDE5BDE4BDF7
:1002E800E3BDE9BFE5BFE4BFEAB9E0E8E8B9E0E0AB
:1002F800E0BFE6B9EDB9E6BF949A959A02D121F428
:1003080000240A140B0409F003C08824992481C02E
:1003180000240A140B0411F4CB9901C039C0042C31
:10032800052831F4E1E0F0E02F014F01AA9AC7DE79
:10033800AA9A00240414050444F4002408140904A7
:1003480024F400240614070409F001C0B8DE0024D0
:100358000414050444F400240814090421F40024B6
:100368000614070409F006C0E1E0F0E04F013F0180
:10037800A99AA5DE00240414050444F400240814F2
:10038800090424F40024061407040CF001C097DEC5
:1003980000240A140B0414F4CB9901C02DC060D0BA
:1003A80021F04CD011F061D031F50024041405047B
:1003B80044F400240A140B0424F400240C140D043F
:1003C80009F005C0E1E0F0E06F014F0178DE00249C
:1003D8000414050464F400240A140B0444F40024EF
:1003E8000C140D0424F400240814090409F001C0B5
:1003F800A89A65DE01C0F4DE00240A140B0414F484
:1004080080D009F007C0CC9902C0CD9B02C0E8DEBD
:1004180001C080DEC89B0BC0C99B09C0CA9B07C02E
:10042800CB9904C0CC9902C0CD9B01C001C004C0C7
:10043800F50131965F01D4DE61CFFFCFA0E0C99905
:10044800A1E0A0300895929A9398979A9698A2E07E
:10045800B0E05CD09298939897989698A2E0089507
:10046800A0E0C899A1E0A0300895A0E0CA99A1E051
:10047800A03008959298939A9798969AA2E0B0E03F
:1004880045D09298939897989698089596989798A3
:10049800929A9398A4E0B0E039D0929893980895EE
:1004A8009698979A92989398A4E0B0E02FD096984F
:1004B80097980895929A9398979A9698A1E0B0E0A1
:1004C80025D092989398979896980895929A939889
:1004D80097989698A6E0B0E019D092980895A0E071
:1004E800CC99A1E0A0300895A0E0CD99A1E0A0307A
:1004F8000895A4E0B0E00AD09298939897989698B7
:100508000895A0E0CB99A1E0A0300895109639F0A5
:1005180080ED97E00197F1F7A8951197C9F708952D
:00000001FF
