:040000000C94330029
:100004000C9400000C9400000C9400000C9400006C
:100014000C9400000C9400000C9400000C9400005C
:100024000C9400000C9400000C9400000C9400004C
:100034000C9400000C9400000C9400000C9400003C
:100044000C9400000C9400000C9400000C9400002C
:10005400000000000000000000000A00040054003A
:100064000000F894EE27ECBBF1E0FBBFEBBFE5BF6B
:10007400F8E1F1BDE1BD8DE0A2E0BB27ED938A95E7
:10008400E9F780E094E0A0E6ED930197E9F7EEE567
:10009400F0E085919591009761F0A591B591059057
:1000A4001590BF01F00105900D920197E1F7FB0156
:1000B400F0CFEFE5EDBFE4E0EEBFC0E6D1E00C9495
:1000C400AC01CB9B04C0CC9B02C0CD9901C003C042
:1000D4002ED232D23CC1A0E0C899A1E0E0E09FD288
:1000E4000E2EA0E0C999A1E0E1E099D2E02111F03F
:1000F4002DD209F013C000240414050444F4002490
:100104000614070424F400240A140B0409F003C0A1
:1001140022D2A9E11BC11FD2A1E018C1C89B04C00F
:1001240026D211F4CA9901C002C026D20FC1C89BBD
:1001340004C0C99B02C0CA9901C003C00CD2A1E08B
:1001440005C127D221F413D211F400D209F007C05B
:10015400EED1A1E023D297989698A1E0F7C0C89B6E
:1001640002C0F4D109F003C01ED2A1E0EFC011D245
:1001740011F4CA9901C012C0C99B04C000240A1416
:100184000B0409F008C09698979A929A12D2929802
:100194009398A1E0DBC014D2A1E0D8C00895CB9B12
:1001A40004C0CC9B02C0CD9901C003C0C0D1C4D14E
:1001B400CEC0EFD121F4C99B02C0C8D109F003C05D
:1001C400CAD1A5E0C3C0C89B04C0D1D111F4CA9957
:1001D40001C002C0D1D1BAC0C89B04C0C99B02C02F
:1001E400CA9901C013C000240C140D0424F4002483
:1001F4000A140B040CF005C0E7D1A4E0CFD1A6E0AB
:1002040002C0A9D1A4E0B0E000D20895C2D121F483
:10021400AED111F49BD109F031C000240A140B04AF
:100224003CF400240C140D0414F0D3D10CF401C0DC
:1002340007C07DD1A2E0B2D197989698A1E086C07C
:10024400CED151F4D1D141F400240C140D0421F485
:1002540000240A140B040CF009C0B6D1A6E0B0E0E7
:10026400D4D19298A1E0B0E0D0D107C060D1A2E08F
:1002740095D197989698A1E069C00895C89B02C04B
:1002840065D109F003C08FD1A1E060C082D111F41F
:10029400CA9901C003C094D1A1E058C00895CB9B72
:1002A40004C09DD111F4A0D109F003C054D1A4E03D
:1002B4004DC0CB9B04C093D111F4CD9901C003C0B0
:1002C4004AD1A4E043C0CB9B04C0CC9B02C0CD99CF
:1002D40001C003C02CD130D13AC08BD121F47FD1DD
:1002E40011F482D109F004C0929A9398979828C087
:1002F40080D121F474D111F4CD9901C004C0929A33
:10030400939897981DC075D121F4CC9B02C0CD99C8
:1003140001C004C0929A9398979812C06AD121F4AC
:10032400CC9B02C061D109F001C007C0CB9B04C0C3
:10033400CC9B02C059D109F00CC092989398979A1B
:100344009698A6E02BD197989698A2E0B0E05DD15C
:1003540008950895E0E0EABBEBBBE7BBE8BBEFE33D
:10036400E4BBE0E0E5BBEFEFE1BBE0E0E2BBE3BF11
:10037400E2BFECBFEFBDEEBDEDBDECBDE7BDE6BD3C
:10038400EBBDEABDE9BDE8BDE2BDE5BDE4BDE3BD4D
:10039400E9BFE5BFE4BFEAB9E0E8E8B9E0E0E0BFFF
:1003A400E6B9EDB9E6BF949A959AA4E6B0E02DD1EA
:1003B40020D121F400240A140B0409F012C088246B
:1003C400992400240414050444F4002406140704A6
:1003D40024F400240A140B0409F001C072DEDFDEE9
:1003E40092C000240A140B0411F4CB9901C038C044
:1003F400042C052831F4E1E0F0E02F014F01919A3B
:1004040060DE00240414050444F4002408140904E0
:1004140024F400240614070409F001C052DE002469
:100424000414050444F400240814090421F40024E9
:100434000614070409F006C0E1E0F0E04F013F01B3
:10044400A99A3FDE00240414050444F4002408148B
:10045400090424F40024061407040CF001C031DE5E
:1004640000240A140B0414F4CB9901C031C0C899B8
:1004740004C0C99902C0CA9B27C0002404140504FF
:1004840044F400240A140B0424F400240C140D0472
:1004940009F005C0E1E0F0E06F014F0112DE002435
:1004A4000414050464F400240A140B0444F4002422
:1004B4000C140D0424F400240814090409F002C0E7
:1004C4009DD0A89AFEDD04C0E1E0F0E04F01E7DE34
:1004D40000240A140B0414F48CD009F014C08824EA
:1004E4009924C89904C0C99902C0CA9B03C086D084
:1004F40056DE09C000240C140D0414F06AD014F460
:100504004EDE01C0CCDE45D059F431D049F41ED0C2
:1005140039F4CB9904C0CC9902C0CD9B01C001C071
:1005240004C0E1E0F0E05F01BADE42CFFFCF929871
:10053400939A9798969A0895A5E0B0E066D0929819
:10054400939897989698ACEDB5E00895A0E0CA9971
:10055400A1E0A0300895929A9398979A9698A1E072
:10056400B0E053D092989398979896980895A0E005
:10057400C999A1E0A0300895929A93989798969873
:10058400A1E0B0E042D09298939897989698A5E00D
:100594000895A0E0C899A1E0A0300895B0E035D056
:1005A40092989398089596989798929A9398A2E01F
:1005B400F5CF9398A2E0B0E028D096989798089544
:1005C4009698979A9298F5CF929A93989798969826
:1005D4000895A0916001B091610126D00895A0E032
:1005E400CC99A1E0A0300895A0E0CD99A1E0A0307D
:1005F4000895A0E0CB99A1E0A0300895E1E0F0E0F7
:10060400E0936001F09361010895109639F080ED54
:1006140097E00197F1F7A8951197C9F70895EA179C
:10062400E1E009F0EE27089500240A160B06089568
:00000001FF
