:060000000C942A000C9490
:1000060000000C9400000C9400000C9400000C946A
:1000160000000C9400000C9400000C9400000C945A
:1000260000000C9400000C9400000C9400000C944A
:1000360000000C9400000C9400000C9400000C943A
:1000460000000C9400000C9400000C940000F8943E
:10005600EE27ECBBF1E0FBBFEBBFE5BFF8E1F1BD7E
:10006600E1BD8DE0A2E0BB27ED938A95E9F780E03C
:1000760094E0A0E6ED930197E9F7EFE5EDBFE4E044
:10008600EEBFC0E6D1E00C944800E0E0EABBEBBB73
:10009600E7BBE8BBEFE0E4BBE0E0E5BBEFEFE1BBCD
:1000A600E0E0E2BBE3BFE2BFECBFE1EAEFBDEBE0BD
:1000B600EEBDE0E0EDBDECBDE7BDE6BDEBBDEABDE6
:1000C600E9BDE8BDE2BDE5BDE4BDE3BDE9BFE5BF11
:1000D600E4BFEAB9E0E8E8B9E0E0E0BFE6B9EDB9C7
:1000E600E6BF949A959AC89B04C043D011F4CA9966
:1000F60001C002C043D04BD0A0E0C899A1E0A03017
:1001060039F437D029F4A0E0CA99A1E0A03009F06B
:1001160004C034D0A4E0B0E041D0C89B02C0C99965
:1001260001C008C02BD0EAE0F0E0F9BDE8BDA4E0CC
:10013600B0E034D0C99B02C0CA9901C009C0929AE6
:100146009398979A9698EAE0F0E0FBBDEABD1FD037
:10015600C89B04C0C99B02C0CA9901C008C0929836
:10016600939A9798969AA5E0B0E018D0A89ABBCF34
:10017600FFCFA0E0C999A1E0A0300895929A939884
:10018600979A9698E2E3F0E0FBBDEABD0895E2E3B4
:10019600F0E0F9BDE8BDA4E0B0E000C0109639F08B
:1001A60080ED97E00197F1F7A8951197C9F70895A3
:00000001FF
