:0C0000000C942A000C9400000C940000EA
:10000C000C9400000C9400000C9400000C94000064
:10001C000C9400000C9400000C9400000C94000054
:10002C000C9400000C9400000C9400000C94000044
:10003C000C9400000C9400000C9400000C94000034
:10004C000C9400000C940000F894EE27ECBBF1E04B
:10005C00FBBFEBBFE5BFF8E1F1BDE1BD8DE0A2E078
:10006C00BB27ED938A95E9F780E094E0A0E6ED9349
:10007C000197E9F7EFE5EDBFE4E0EEBFC0E6D1E0B4
:10008C000C944800E0E0EBBBEFEFEABBE0E0E8BB30
:10009C00E7BBE5BBE4BBE2BBE0E3E1BBE0E0E3BF15
:1000AC00E2BFECBFE1EAEFBDEAE0EEBDE0E0EDBDA2
:1000BC00ECBDE7BDE6BDEBBDEABDE9BDE8BDE2BD0B
:1000CC00E5BDE4BDE3BDE5BFE4BFE9BFE0E8E8B9E9
:1000DC00E0E0E0BFEFEFF0E0FBBDEABDF9BDE8BD4D
:1000EC00D89AD998DE98DF98E9E1F0E0FA93EA9390
:1000FC000E948200EFCFFFCFE991F991309639F051
:10010C0080ED97E00197F1F7A8953197C9F708951D
:00000001FF
