:060000000C943C000C947E
:1000060000000C9400000C9400000C9400000C946A
:1000160000000C9400000C9400000C9400000C945A
:1000260000000C9400000C9400000C9400000C944A
:1000360000000C9400000C9400000C9400000C943A
:1000460000000C9400000C9400000C940000600169
:100056000000737373737377777777777777777330
:10006600737300001100600158000200080056007A
:100076000000F894EE27ECBBF1E0FBBFEBBFE5BF59
:10008600F8E1F1BDE1BD8DE0A2E0BB27ED938A95D5
:10009600E9F780E094E0A0E6ED930197E9F7EAE658
:1000A600F0E085919591009761F0A591B591059045
:1000B6001590BF01F00105900D920197E1F7FB0144
:1000C600F0CFEFE5EDBFE4E0EEBFC0E6D1E00C9483
:1000D6006C0005E010E0E0E0EBBBEFEFEABBE0E030
:1000E600E8BBE7BBE5BBE4BBE2BBE0E3E1BBE0E0CA
:1000F600E3BFE2BFECBFE1EAEFBDEAE0EEBDE0E060
:10010600EDBDECBDE7BDE6BDEBBDEABDE9BDE8BDB5
:10011600E2BDE5BDE4BDE3BDE5BFE4BFE9BFE0E8A0
:10012600E8B9E0E0E0BFB09B4EC0E8ECF0E0FBBD14
:10013600EABDF9BDE8BDA0E08099A1E0A03011F4C8
:10014600829901C002C069D03AC0A0E08199A1E0BD
:10015600A03011F4809901C002C037D030C0A0E0B1
:100166008099A1E0A03029F4A0E08299A1E0A03016
:1001760009F019C0E0917101F09172013196E09396
:100186007101F0937201A0917101B0917201E2E0E8
:10019600F0E00E94AD01E130A0E0FA0711F43DD095
:1001A60001C05BD00FC0829902C057D008C0809BA7
:1001B60004C0829B02C0829901C004C071D0E7E0EE
:1001C600F0E08FD0B2CFAFCFFFCF44245524E5E087
:1001D600F0E04E165F0604F5D89AD998E4E0F0E010
:1001E600E415F50511F4DE9801C0DE9ADF98E4E027
:1001F600F0E0E415F50529F488E592E00197F1F7BA
:1002060001C073D0E0E0EBBB8CE49DE10197F1F710
:10021600F20131962F01DBCF0895D7DF4424552410
:10022600ECE0F0E04E165F06BCF4D89AD998DE985A
:10023600E3E0F0E04E165F062CF0D2010E94AD011D
:10024600309709F002C0DF9A01C0DF984ED050D037
:10025600F20131962F01E4CF1EC044245524EDE06F
:10026600F0E04E165F06BCF4D898E2E0F0E04E16D9
:100276005F062CF0D2010E94AD01309709F002C052
:10028600D99A01C0D998DE9ADF982FD031D0F201E1
:1002960031962F01E4CF99DFE5E0F0E022D0089512
:1002A60044245524E8E0F0E04E165F0634F425D0E9
:1002B60029D0F20131962F01F5CFD898D99ADE9838
:1002C600DF9A13D01FD044245524E8E0F0E04E1600
:1002D6005F0634F412D016D0F20131962F01F5CF15
:1002E6000895FA93EA930C948A01E2E0F0E0F9CFDC
:1002F600E0E0EBBBE4E0F0E0F4CFD89AD998DE98E2
:10030600DF9AF3CFE0E0EBBBE3E0F0E0EACFE99180
:10031600F991309639F080ED97E00197F1F7A895BD
:100326003197C9F70895F195E195F04008950024B5
:10033600112490E1AA0FBB1F001C111C0E1A1F0AE4
:1003460018F40E0E1F1E01C0A1609A9599F7FD01C3
:10035600D0010895E894B7FF04C0A095B095119612
:100366006894F7FDE0DFE3DFFD010EF4DCDF0895BE
:00000001FF
