:0A0000000C942F000C9400000C94E7
:10000A0000000C9400000C9400000C9400000C9466
:10001A0000000C9400000C9400000C9400000C9456
:10002A0000000C9400000C9400000C9400000C9446
:10003A0000000C9400000C9400000C9400000C9436
:10004A0000000C9400000C94000000000200040060
:10005A0054000000F894EE27ECBBF1E0FBBFEBBFC5
:10006A00E5BFF8E1F1BDE1BD8DE0A2E0BB27ED936C
:10007A008A95E9F780E094E0A0E6ED930197E9F725
:10008A00E6E5F0E085919591009761F0A591B5912B
:10009A0005901590BF01F00105900D920197E1F7C7
:1000AA00FB01F0CFEFE5EDBFE4E0EEBFC0E6D1E043
:1000BA000C945F00E0E0EBBBEABBE8BBE7BBE5BB47
:1000CA00E4BBE2BBE0E3E1BBE0E0E3BFE2BFECBFDD
:1000DA00E1EAEFBDEAE0EEBDE0E0EDBDECBDE7BD73
:1000EA00E6BDEBBDEABDE9BDE8BDE2BDE5BDE4BDE7
:1000FA00E3BDE5BFE4BFE9BFE0E8E8B9E0E0E0BF9F
:10010A00EFEFEABBB09B0AC0949A959A829B08D0FB
:10011A00E0E0EBBBE0E1F7E21BD0F8CFF3CFFFCF93
:10012A0044245524EAE0F0E04E165F0684F4D89A97
:10013A00D998DE9ADF98E7E1F0E00AD0E0E0EBBB7D
:10014A00E5E0F0E005D0F20131962F01EBCF0895FA
:10015A00FA93EA930C94B100E991F991309639F047
:10016A0080ED97E00197F1F7A8953197C9F70895BF
:00000001FF
