:100000000C942A000C9400000C9400000C94000046
:100010000C9400000C9400000C9400000C94000060
:100020000C9400000C9400000C9400000C94000050
:100030000C9400000C9400000C9400000C94000040
:100040000C9400000C9400000C9400000C94000030
:100050000C940000F894EE27ECBBF1E0FBBFEBBF83
:10006000E5BFF8E1F1BDE1BD8DE0A2E0BB27ED9376
:100070008A95E9F780E094E0A0E6ED930197E9F72F
:10008000EFE5EDBFE4E0EEBFC0E6D1E00C94480040
:10009000E0E0EBBBEABBE8BBE7BBE5BBE4BBE2BB34
:1000A000E0E3E1BBE0E0E3BFE2BFECBFE1EAEFBDCC
:1000B000EAE0EEBDE0E0EDBDECBDE7BDE6BDEBBDC9
:1000C000EABDE9BDE8BDE2BDE5BDE4BDE3BDE5BF18
:1000D000E4BFE9BFE0E8E8B9E0E0E0BFEFEFEABB8A
:1000E000B09B33C034D0E1E4F0E0FBBDEABD3FD0CB
:1000F000809B1BC02ED043D0F9BDE8BDE4EFF1E0FA
:10010000FA93EA930E94C40044245524E8E2F0E004
:100110004E165F064CF422D032D029D0809904C00C
:10012000F20131962F01F2CF0FC0819B0DC01AD082
:10013000EBE4F0E0FBBDEABDF9BDE8BDE8ECF0E0C2
:10014000FA93EA930E94C400CDCFCACFFFCFD89ACA
:100150000AC0D898D99ADE98DF9A0895D89AD99883
:10016000DE9803C0D898D998DE9ADF980895F9BD33
:10017000E8BDE5E0F0E0FA93EA930C94C400EAE508
:10018000F0E0FBBDEABD0895E991F991309639F0B0
:1001900080ED97E00197F1F7A8953197C9F7089599
:00000001FF
