:0A0000000C942A000C9400000C94EC
:10000A0000000C9400000C9400000C9400000C9466
:10001A0000000C9400000C9400000C9400000C9456
:10002A0000000C9400000C9400000C9400000C9446
:10003A0000000C9400000C9400000C9400000C9436
:10004A0000000C9400000C940000F894EE27ECBB1E
:10005A00F1E0FBBFEBBFE5BFF8E1F1BDE1BD8DE02B
:10006A00A2E0BB27ED938A95E9F780E094E0A0E649
:10007A00ED930197E9F7EFE5EDBFE4E0EEBFC0E6E7
:10008A00D1E00C944800E0E0EBBBEABBE8BBE7BB7D
:10009A00E5BBE4BBE2BBE0E3E1BBE0E0E3BFE2BF18
:1000AA00ECBFE1EAEFBDEAE0EEBDE0E0EDBDECBD9C
:1000BA00E7BDE6BDEBBDEABDE9BDE8BDE2BDE5BD14
:1000CA00E4BDE3BDE5BFE4BFE9BFE0E8E8B9E0E0CD
:1000DA00E0BFEFEFEABBB09B15C0D89AD998DE9A79
:1000EA00DF98E6ECF0E0FBBDEABDE8ECF0E00CD00E
:1000FA00D898D99ADE98DF9AE4E1F0E0FBBDEABD30
:10010A0003D0EBCFE8CFFFCFF9BDE8BDE4EFF1E0D4
:10011A00FA93EA930C949100E991F991309639F0A7
:10012A0080ED97E00197F1F7A8953197C9F70895FF
:00000001FF
