:100000000C942A000C9400000C9400000C94000046
:100010000C9400000C9400000C9400000C94000060
:100020000C9400000C9400000C9400000C94000050
:100030000C9400000C9400000C9400000C94000040
:100040000C9400000C9400000C9400000C94000030
:100050000C940000F894EE27ECBBF1E0FBBFEBBF83
:10006000E5BFF8E1F1BDE1BD8DE0A2E0BB27ED9376
:100070008A95E9F780E094E0A0E6ED930197E9F72F
:10008000EFE5EDBFE4E0EEBFC0E6D1E00C94480040
:10009000E0E0EBBBEFEFEABBE0E0E8BBE7BBE5BBD2
:1000A000E4BBE2BBE0E3E1BBE0E0E3BFE2BFECBF07
:1000B000EFBDEEBDEDBDECBDE7BDE6BDEBBDEABD00
:1000C000E9BDE8BDE2BDE5BDE4BDE3BDE5BFE4BF1C
:1000D000E9BFE0E8E8B9E0E0E0BFB09B2BC0949A4C
:1000E000959A809B04C0819B02C0829901C009C07F
:1000F000D89AD998DE9ADF9880E293E00197F1F7D9
:1001000010C0809904C0D898D998DE9A05C0829909
:100110000AC0D89AD998DE98DF9880E991E00197D3
:10012000F1F7E0E0EBBBE1E0F0E0FA93EA930E9444
:100130009C00D7CFD2CFFFCFE991F991309639F01B
:1001400080ED97E00197F1F7A8953197C9F70895E9
:00000001FF
