:020000000C945E
:100002002A000C9400000C9400000C9400000C9444
:1000120000000C9400000C9400000C9400000C945E
:1000220000000C9400000C9400000C9400000C944E
:1000320000000C9400000C9400000C9400000C943E
:1000420000000C9400000C9400000C9400000C942E
:100052000000F894EE27ECBBF1E0FBBFEBBFE5BF7D
:10006200F8E1F1BDE1BD8DE0A2E0BB27ED938A95F9
:10007200E9F780E094E0A0E6ED930197E9F7EFE578
:10008200EDBFE4E0EEBFC0E6D1E00C944800E0E052
:10009200EBBBEFEFEABBE0E0E8BBE7BBE5BBE4BBF1
:1000A200E2BBE0E3E1BBE0E0E3BFE2BFECBFE1EAD9
:1000B200EFBDEAE0EEBDE0E0EDBDECBDE7BDE6BDC3
:1000C200EBBDEABDE9BDE8BDE2BDE5BDE4BDE3BD12
:1000D200E5BFE4BFE9BFE0E8E8B9E0E0E0BFB19B1B
:1000E20003C0EEE67E2E6E2EE3E7E61511F4E71569
:1000F20081F0EEE6E61511F4E71559F0EEE6E615A5
:1001020011F4E71531F0EEE6E61511F4E71509F002
:1001120002C07AD050C0EEE6E71519F4E5E6E6151E
:1001220099F0E5E6E71519F4EEE6E61569F0E7E77A
:10013200E71519F4E3E7E61539F0E3E7E71519F4F3
:10014200E7E7E61509F002C03DD035C0EEE6E71557
:1001520019F4E7E7E61599F0E7E7E71519F4EEE693
:10016200E61569F0E5E6E71519F4E3E7E61539F077
:10017200E3E7E71519F4E5E6E61509F002C033D026
:100182001AC0EEE6E71519F4E3E7E61599F0E3E79E
:10019200E71519F4EEE6E61569F0E5E6E71519F458
:1001A200E7E7E61539F0E5E6E71519F4E7E7E615BE
:1001B20009F001C03AD0E0E0EBBBE0EAF6E858D043
:1001C2008ECFFFCF44245524EEE0F0E04E165F06BA
:1001D2004CF4D89AD998DE984FD052D0F201319689
:1001E2002F01F2CF089544245524EEE0F0E04E169C
:1001F2005F064CF4D898D998DE9A3ED041D0F201ED
:1002020031962F01F2CF089544245524E1E1F0E024
:100212004E165F064CF4D89AD998DE9A2DD030D07B
:10022200F20131962F01F2CF089544245524E7E0DC
:10023200F0E04E165F0634F428D022D0F201319657
:100242002F01F5CFD898D99ADE98DF9AE2E0F0E054
:100252000FD016D044245524E7E0F0E04E165F0696
:1002620034F413D00DD0F20131962F01F5CF089559
:10027200FA93EA930C944D01DF98E2E0F0E0F8CFB4
:10028200E0E0EBBBE3E0F0E0F3CFD89AD998DE9858
:10029200DF9AE2E0F0E0ECCFE991F991309639F0A3
:1002A20080ED97E00197F1F7A8953197C9F7089586
:00000001FF
