:080000000C942F000C94000089
:100008000C9400000C9400000C9400000C94000068
:100018000C9400000C9400000C9400000C94000058
:100028000C9400000C9400000C9400000C94000048
:100038000C9400000C9400000C9400000C94000038
:100048000C9400000C9400000C94000000000200C6
:10005800060054000000F894EE27ECBBF1E0FBBF6B
:10006800EBBFE5BFF8E1F1BDE1BD8DE0A2E0BB2744
:10007800ED938A95E9F780E094E0A0E6ED93019787
:10008800E9F7E6E5F0E085919591009761F0A59193
:10009800B59105901590BF01F00105900D9201975B
:1000A800E1F7FB01F0CFEFE5EDBFE4E0EEBFC0E61E
:1000B800D1E00C947A00D301E2E3F0E00E94190148
:1000C800DF01E881F981AE1BBF0BE5E0F0E00E949B
:1000D80001012F01E881F981AEE1B0E00E94010140
:1000E8003F01F301E40DF51D22960895E0E0EBBB16
:1000F800EFEFEABBE0E0E8BBE7BBE5BBE4BBE2BB94
:10010800E0E3E1BBE0E0E3BFE2BFECBFE1EAEFBD63
:10011800EAE0EEBDE0E0EDBDECBDE7BDE6BDEBBD60
:10012800EABDE9BDE8BDE2BDE5BDE4BDE3BDE5BFAF
:10013800E4BFE9BFE0E8E8B9E0E0E0BFB09B38C061
:10014800E4E6F0E0FA93EA930E94E900CA9906C04F
:10015800D89AD998DE98DF9A2DD01EC0CB9905C0C1
:10016800D89AD998DE982BD017C0CC9905C0D898C2
:10017800D998DE9A24D010C0CD9906C0D898D99ABB
:10018800DE9ADF9817D008C0829B12C0D89AD998F7
:10019800DE9ADF98E8ECF0E0FA93EA930E94E9002F
:1001A800E0E0EBBBE0EAF6E8FA93EA930E94E900A4
:1001B800C5CFFFCFE2E0F0E0FA93EA937CCFDF9877
:1001C800E1E0F0E0FA93EA9376CFE991F99130967D
:1001D80039F080ED97E00197F1F7A8953197C9F7C5
:1001E8000895F195E195F0400895FA9FF02DEB9F61
:1001F800F00DEA9FE02DF10D08951CD0F6DF0EF406
:10020800F0DF08950024112490E1AA0FBB1F001C01
:10021800111C0E1A1F0A18F40E0E1F1E01C0A16031
:100228009A9599F7FD01D001089504D0EBDF0EF4FB
:10023800D8DF0895E894F7FF02C0D3DF6894B7FFCA
:1002480006C0A095B095119600F8039400FA089599
:00000001FF
